:1000000050C06AC069C068C067C03EC165C064C0F6
:1000100063C062C061C060C05FC05EC05DC00800F8
:100020000000BE922449123EABAAAA2ABECDCCCC77
:100030004C3E00000080BEABAAAAAA3E0000000011
:10004000BF000000803F0000000000084178D3BBE3
:100050004387D1133D190E3CC3BD4282AD2B3E6890
:10006000EC8276BED98FE1A93E4C80EFFFBE01C481
:10007000FF7F3F000000000000000000370000008C
:100080000000380002020202020202020202010221
:1000900004081020200410080102000004000000E1
:1000A000000011241FBECFE5D2E0DEBFCDBF10E0BF
:1000B000A0E6B0E0ECE4FBE002C005900D92A036B3
:1000C000B107D9F720E0A0E6B0E001C01D92A53746
:1000D000B207E1F723D138C593CFE9E9F0E02491E5
:1000E000EFE8F0E09491E5E8F0E0E491EE23C1F070
:1000F000222329F0223009F1A0F42130D1F0F0E0E0
:10010000EE0FFF1FE258FF4FA591B4912FB7F8945F
:10011000811116C08C91E92FE095E823EC932FBF55
:100120000895233011F0243051F72CB52F7D2CBDCC
:10013000E6CF2AB52F772ABDE2CF2AB52F7DFBCF98
:10014000EC91E92BEBCFE9E9F0E0E491E230B1F09A
:1001500038F4E13071F080389105D4F480E0BDCFFF
:10016000E33089F0E430B9F79CB590629CBD8BBD5B
:1001700008959AB590689ABD89BD08959AB5906220
:100180009ABD88BD08959CB590629CBD8EBD0895B2
:1001900081E0E5CFEFE8F0E02491E5E8F0E084913C
:1001A000882399F090E0880F991FFC01E858FF4FD1
:1001B000A591B491FC01E258FF4F859194918FB7BE
:1001C000F894EC91E22BEC938FBF0895865087B999
:1001D000369A3699FECF84B195B108953FB7F89419
:1001E0008091710090917200A0917300B0917400A1
:1001F00022B708B601FE05C02F3F19F00196A11DD8
:10020000B11D3FBFBA2FA92F982F8827BC01CD0160
:10021000620F711D811D911D43E0660F771F881FBE
:10022000991F4A95D1F708958F929F92AF92BF92EE
:10023000CF92DF92EF92FF924B015C01CFDF6B0117
:100240007C01CCDF6C197D098E099F09683E7340E3
:1002500081059105B0F321E0821A9108A108B10847
:1002600088EEC80E83E0D81EE11CF11C81149104B5
:10027000A104B10431F7FF90EF90DF90CF90BF90D1
:10028000AF909F908F9008951F920F920FB60F928C
:1002900011242F933F938F939F93AF93BF9380919C
:1002A0006D0090916E00A0916F00B0917000309140
:1002B0006C0026E0230F2D3758F50296A11DB11DC5
:1002C00020936C0080936D0090936E00A0936F005C
:1002D000B09370008091710090917200A0917300B2
:1002E000B09174000196A11DB11D8093710090938F
:1002F0007200A0937300B0937400BF91AF919F916F
:100300008F913F912F910F900FBE0F901F901895D6
:1003100029E8230F0396A11DB11DD2CF78948AB589
:1003200082608ABD8AB581608ABD83B7826083BFDF
:1003300083B7816083BF89B7826089BF80B78260DD
:1003400080BF80B7816080BF329A319A3098379AE7
:100350008CB580648CBD83B7887F816083BF1ADFD2
:1003600019DF8EEF90E0EFDE33E0232E312CCC242A
:10037000CA9443E0D42EE12CF12C59E1852E912C26
:10038000A12CB12C00E010E010926B0010926A00DA
:10039000C0916A00D0916B00C330D105A4F487E00E
:1003A00015DFFE01EE0FFF1FEC59FF4F9183808395
:1003B00065E070E080E090E037DF2196D0936B003D
:1003C000C0936A00E5CF6091640070916500072ECC
:1003D000000C880B990B23D220E030E0A9011CD13E
:1003E0002B013C016091660070916700072E000CA4
:1003F000880B990B14D2A30192010ED12B013C0161
:100400006091680070916900072E000C880B990BB1
:1004100006D2A301920100D130926B0020926A00B3
:1004200020E030E040E450E45FD19B01AC0160E0AB
:1004300070EC8FE794E458D120E030E040E85FE3CF
:10044000EAD09B01AC0160E070E583EC97E44CD10D
:1004500020E030E543EC57E447D19AD22B013C0130
:1004600089E0B4DEEC0120E030EE46E755E4C3015C
:10047000B2013AD124EF3EE248E55BE3CDD09B01E7
:10048000AC0160E070E080E89FE32ED123E333E924
:1004900048E853E4C0D02B013C01BE01DD0F880BBE
:1004A000990B24E130E040E050E05ED0A7019601D6
:1004B00074D0CA01B9016A50710981099109AFD19B
:1004C0009B01AC01C301B201A7D06093600070939F
:1004D000610080936200909363006ED16E51710948
:1004E000810991092EEF30E040E050E03DD0A501B8
:1004F000940153D0CA01B90192D12B013C0120E0F3
:1005000030E0A901EDD087FD28C020E030E04EE7C3
:1005100053E4C301B20133D2181634F4412C512CE8
:100520008EE7682E83E4782EC301B20145D12B01FA
:10053000EB0130DE80E0209721F0CF3FD10589F438
:1005400081E0CBDD68EE73E080E090E06DDE0115C8
:10055000110509F419CF54DD17CF412C512C32016C
:10056000E3CFC201F0DDEECFEE27FF27AA27BB279E
:1005700008C0A20FB31FE41FF51F220F331F441F33
:10058000551F969587957795679598F37040A9F7CD
:10059000009799F7BD01CF010895052E97FB16F43A
:1005A00000940FD057FD05D014D007FC02D046F4BC
:1005B00008C050954095309521953F4F4F4F5F4F64
:1005C000089590958095709561957F4F8F4F9F4FBF
:1005D0000895A1E21A2EAA1BBB1BFD010DC0AA1F84
:1005E000BB1FEE1FFF1FA217B307E407F50720F09C
:1005F000A21BB30BE40BF50B661F771F881F991F17
:100600001A9469F760957095809590959B01AC015F
:10061000BD01CF0108955058BB27AA270ED075C140
:1006200066D130F06BD120F031F49F3F11F41EF40D
:100630005BC10EF4E095E7FB51C1E92F77D180F360
:10064000BA17620773078407950718F071F49EF5CF
:100650008FC10EF4E0950B2EBA2FA02D0B01B9011E
:1006600090010C01CA01A0011124FF27591B99F028
:10067000593F50F4503E68F11A16F040A22F232F34
:10068000342F4427585FF3CF469537952795A79584
:10069000F0405395C9F77EF41F16BA0B620B730B2B
:1006A000840BBAF09150A1F0FF0FBB1F661F771F9C
:1006B000881FC2F70EC0BA0F621F731F841F48F451
:1006C000879577956795B795F7959E3F08F0B3CFD7
:1006D0009395880F08F09927EE0F979587950895C1
:1006E000D9D008F481E008950CD00FC107D140F0B3
:1006F000FED030F021F45F3F19F0F0C0511139C144
:10070000F3C014D198F39923C9F35523B1F3951B82
:10071000550BBB27AA2762177307840738F09F5F22
:100720005F4F220F331F441FAA1FA9F333D00E2E91
:100730003AF0E0E830D091505040E695001CCAF7FE
:1007400029D0FE2F27D0660F771F881FBB1F2617C3
:1007500037074807AB07B0E809F0BB0B802DBF0196
:10076000FF2793585F4F2AF09E3F510568F0B6C0AF
:1007700000C15F3FECF3983EDCF386957795679573
:10078000B795F7959F5FC9F7880F911D9695879547
:1007900097F90895E1E0660F771F881FBB1F621766
:1007A00073078407BA0720F0621B730B840BBA0B24
:1007B000EE1F88F7E095089504D06894B111D9C070
:1007C0000895BCD088F09F5790F0B92F9927B75162
:1007D000A0F0D1F0660F771F881F991F1AF0BA9505
:1007E000C9F712C0B13081F0C3D0B1E00895C0C0E4
:1007F000672F782F8827B85F39F0B93FCCF38695FB
:1008000077956795B395D9F73EF490958095709557
:1008100061957F4F8F4F9F4F0895E89409C097FBD4
:100820003EF490958095709561957F4F8F4F9F4FC7
:100830009923A9F0F92F96E9BB279395F69587950B
:1008400077956795B795F111F8CFFAF4BB0F11F4CE
:1008500060FF1BC06F5F7F4F8F4F9F4F16C0882375
:1008600011F096E911C0772321F09EE8872F762FAB
:1008700005C0662371F096E8862F70E060E02AF0EC
:100880009A95660F771F881FDAF7880F96958795D8
:1008900097F90895990F0008550FAA0BE0E8FEEFAD
:1008A00016161706E807F907C0F012161306E40734
:1008B000F50798F0621B730B840B950B39F40A262D
:1008C00061F0232B242B252B21F408950A2609F40B
:1008D000A140A6958FEF811D811D089597F99F670F
:1008E00080E870E060E008959FEF80EC08950024B8
:1008F0000A941616170618060906089500240A9485
:1009000012161306140605060895092E0394000C0A
:1009100011F4882352F0BB0F40F4BF2B11F460FF99
:1009200004C06F5F7F4F8F4F9F4F089557FD9058C2
:10093000440F551F59F05F3F71F04795880F97FBA3
:10094000991F61F09F3F79F087950895121613065D
:100950001406551FF2CF4695F1DF08C0161617068C
:100960001806991FF1CF86957105610508940895C1
:10097000E894BB2766277727CB0197F908958ADF8C
:1009800008F48FEF08950EF0ACC0AECF6894A6CFF8
:10099000D5DFC8F39923D1F3C6F3DF93CF931F9329
:1009A0000F93FF92C92FDD2788232AF02197660F26
:1009B000771F881FDAF720E030E040E85FEB9FE325
:1009C000883920F0803E30F021968F7725DEEEE1E9
:1009D000F0E003C021DEEBE4F0E091D08B01BE013A
:1009E000EC01FB2E6F5771097595771F880B990BDA
:1009F00016DF28E132E741E35FE313D0AF2D980122
:100A0000AE01FF900F911F91CF91DF9116DE7DCF48
:100A10006EDF28F073DF18F0952309F05FCF64CF05
:100A2000A8CF84DFA8F39923D9F35523C9F3950FF1
:100A300050E0551FAA27EE27FF27BB270024089464
:100A4000679520F4E20FF31FB41F0A1E220F331F15
:100A5000441FAA1F6695A9F7779530F4F30FB41FCA
:100A60000A1E121E08F46395330F441FAA1F221F8B
:100A7000769599F7879520F4B40F0A1E121E631F0E
:100A8000440FAA1F221F331F8695A9F7862F712DA9
:100A9000602D11249F5750408AF0E1F088234AF0DE
:100AA000EE0FFF1FBB1F661F771F881F915050401E
:100AB000A9F79E3F510570F011CF5BCF5F3FECF37C
:100AC000983EDCF3869577956795B795F795E7950A
:100AD0009F5FC1F7FE2B880F911D9695879597F91B
:100AE00008959F3F31F0915020F487957795679551
:100AF000B795880F911D9695879597F90895DF937F
:100B0000CF931F930F93FF92EF92DF927B018C01A3
:100B1000689405C0DA2EEF0184DFFE01E894A59108
:100B20002591359145915591AEF3EF0186DDFE019A
:100B30009701A801DA9479F7DF90EF90FF900F9179
:0C0B40001F91CF91DF910895F894FFCF32
:00000001FF
